{
  "_format": "hh-sol-artifact-1",
  "contractName": "Turbotoad",
  "sourceName": "contracts/Turbotoad.sol",
  "abi": [
    {
      "inputs": [
        {
          "internalType": "string",
          "name": "_initBaseURI",
          "type": "string"
        }
      ],
      "stateMutability": "nonpayable",
      "type": "constructor"
    },
    {
      "inputs": [],
      "name": "ApprovalCallerNotOwnerNorApproved",
      "type": "error"
    },
    {
      "inputs": [],
      "name": "ApprovalQueryForNonexistentToken",
      "type": "error"
    },
    {
      "inputs": [],
      "name": "BalanceQueryForZeroAddress",
      "type": "error"
    },
    {
      "inputs": [],
      "name": "MintERC2309QuantityExceedsLimit",
      "type": "error"
    },
    {
      "inputs": [],
      "name": "MintToZeroAddress",
      "type": "error"
    },
    {
      "inputs": [],
      "name": "MintZeroQuantity",
      "type": "error"
    },
    {
      "inputs": [
        {
          "internalType": "address",
          "name": "operator",
          "type": "address"
        }
      ],
      "name": "OperatorNotAllowed",
      "type": "error"
    },
    {
      "inputs": [],
      "name": "OwnerQueryForNonexistentToken",
      "type": "error"
    },
    {
      "inputs": [],
      "name": "OwnershipNotInitializedForExtraData",
      "type": "error"
    },
    {
      "inputs": [],
      "name": "TransferCallerNotOwnerNorApproved",
      "type": "error"
    },
    {
      "inputs": [],
      "name": "TransferFromIncorrectOwner",
      "type": "error"
    },
    {
      "inputs": [],
      "name": "TransferToNonERC721ReceiverImplementer",
      "type": "error"
    },
    {
      "inputs": [],
      "name": "TransferToZeroAddress",
      "type": "error"
    },
    {
      "inputs": [],
      "name": "URIQueryForNonexistentToken",
      "type": "error"
    },
    {
      "anonymous": false,
      "inputs": [
        {
          "indexed": true,
          "internalType": "address",
          "name": "owner",
          "type": "address"
        },
        {
          "indexed": true,
          "internalType": "address",
          "name": "approved",
          "type": "address"
        },
        {
          "indexed": true,
          "internalType": "uint256",
          "name": "tokenId",
          "type": "uint256"
        }
      ],
      "name": "Approval",
      "type": "event"
    },
    {
      "anonymous": false,
      "inputs": [
        {
          "indexed": true,
          "internalType": "address",
          "name": "owner",
          "type": "address"
        },
        {
          "indexed": true,
          "internalType": "address",
          "name": "operator",
          "type": "address"
        },
        {
          "indexed": false,
          "internalType": "bool",
          "name": "approved",
          "type": "bool"
        }
      ],
      "name": "ApprovalForAll",
      "type": "event"
    },
    {
      "anonymous": false,
      "inputs": [
        {
          "indexed": true,
          "internalType": "uint256",
          "name": "fromTokenId",
          "type": "uint256"
        },
        {
          "indexed": false,
          "internalType": "uint256",
          "name": "toTokenId",
          "type": "uint256"
        },
        {
          "indexed": true,
          "internalType": "address",
          "name": "from",
          "type": "address"
        },
        {
          "indexed": true,
          "internalType": "address",
          "name": "to",
          "type": "address"
        }
      ],
      "name": "ConsecutiveTransfer",
      "type": "event"
    },
    {
      "anonymous": false,
      "inputs": [
        {
          "indexed": true,
          "internalType": "address",
          "name": "previousOwner",
          "type": "address"
        },
        {
          "indexed": true,
          "internalType": "address",
          "name": "newOwner",
          "type": "address"
        }
      ],
      "name": "OwnershipTransferred",
      "type": "event"
    },
    {
      "anonymous": false,
      "inputs": [
        {
          "indexed": true,
          "internalType": "address",
          "name": "from",
          "type": "address"
        },
        {
          "indexed": true,
          "internalType": "address",
          "name": "to",
          "type": "address"
        },
        {
          "indexed": true,
          "internalType": "uint256",
          "name": "tokenId",
          "type": "uint256"
        }
      ],
      "name": "Transfer",
      "type": "event"
    },
    {
      "inputs": [],
      "name": "MaxperWallet_PublicMint",
      "outputs": [
        {
          "internalType": "uint256",
          "name": "",
          "type": "uint256"
        }
      ],
      "stateMutability": "view",
      "type": "function"
    },
    {
      "inputs": [],
      "name": "OPERATOR_FILTER_REGISTRY",
      "outputs": [
        {
          "internalType": "contract IOperatorFilterRegistry",
          "name": "",
          "type": "address"
        }
      ],
      "stateMutability": "view",
      "type": "function"
    },
    {
      "inputs": [
        {
          "internalType": "uint256",
          "name": "tokens",
          "type": "uint256"
        }
      ],
      "name": "PublicMint",
      "outputs": [],
      "stateMutability": "payable",
      "type": "function"
    },
    {
      "inputs": [],
      "name": "PublicMintCost",
      "outputs": [
        {
          "internalType": "uint256",
          "name": "",
          "type": "uint256"
        }
      ],
      "stateMutability": "view",
      "type": "function"
    },
    {
      "inputs": [],
      "name": "PublicMint_Live",
      "outputs": [
        {
          "internalType": "bool",
          "name": "",
          "type": "bool"
        }
      ],
      "stateMutability": "view",
      "type": "function"
    },
    {
      "inputs": [
        {
          "internalType": "address",
          "name": "operator",
          "type": "address"
        },
        {
          "internalType": "uint256",
          "name": "tokenId",
          "type": "uint256"
        }
      ],
      "name": "approve",
      "outputs": [],
      "stateMutability": "payable",
      "type": "function"
    },
    {
      "inputs": [
        {
          "internalType": "address",
          "name": "owner",
          "type": "address"
        }
      ],
      "name": "balanceOf",
      "outputs": [
        {
          "internalType": "uint256",
          "name": "",
          "type": "uint256"
        }
      ],
      "stateMutability": "view",
      "type": "function"
    },
    {
      "inputs": [],
      "name": "baseExtension",
      "outputs": [
        {
          "internalType": "string",
          "name": "",
          "type": "string"
        }
      ],
      "stateMutability": "view",
      "type": "function"
    },
    {
      "inputs": [],
      "name": "baseURI",
      "outputs": [
        {
          "internalType": "string",
          "name": "",
          "type": "string"
        }
      ],
      "stateMutability": "view",
      "type": "function"
    },
    {
      "inputs": [
        {
          "internalType": "uint256",
          "name": "tokenId",
          "type": "uint256"
        }
      ],
      "name": "getApproved",
      "outputs": [
        {
          "internalType": "address",
          "name": "",
          "type": "address"
        }
      ],
      "stateMutability": "view",
      "type": "function"
    },
    {
      "inputs": [
        {
          "internalType": "uint256",
          "name": "_mintAmount",
          "type": "uint256"
        },
        {
          "internalType": "address",
          "name": "destination",
          "type": "address"
        }
      ],
      "name": "gift",
      "outputs": [],
      "stateMutability": "nonpayable",
      "type": "function"
    },
    {
      "inputs": [
        {
          "internalType": "address",
          "name": "owner",
          "type": "address"
        },
        {
          "internalType": "address",
          "name": "operator",
          "type": "address"
        }
      ],
      "name": "isApprovedForAll",
      "outputs": [
        {
          "internalType": "bool",
          "name": "",
          "type": "bool"
        }
      ],
      "stateMutability": "view",
      "type": "function"
    },
    {
      "inputs": [],
      "name": "maxSupply",
      "outputs": [
        {
          "internalType": "uint256",
          "name": "",
          "type": "uint256"
        }
      ],
      "stateMutability": "view",
      "type": "function"
    },
    {
      "inputs": [],
      "name": "name",
      "outputs": [
        {
          "internalType": "string",
          "name": "",
          "type": "string"
        }
      ],
      "stateMutability": "view",
      "type": "function"
    },
    {
      "inputs": [],
      "name": "notRevealedUri",
      "outputs": [
        {
          "internalType": "string",
          "name": "",
          "type": "string"
        }
      ],
      "stateMutability": "view",
      "type": "function"
    },
    {
      "inputs": [
        {
          "internalType": "address",
          "name": "owner",
          "type": "address"
        }
      ],
      "name": "numberMinted",
      "outputs": [
        {
          "internalType": "uint256",
          "name": "",
          "type": "uint256"
        }
      ],
      "stateMutability": "view",
      "type": "function"
    },
    {
      "inputs": [],
      "name": "owner",
      "outputs": [
        {
          "internalType": "address",
          "name": "",
          "type": "address"
        }
      ],
      "stateMutability": "view",
      "type": "function"
    },
    {
      "inputs": [
        {
          "internalType": "uint256",
          "name": "tokenId",
          "type": "uint256"
        }
      ],
      "name": "ownerOf",
      "outputs": [
        {
          "internalType": "address",
          "name": "",
          "type": "address"
        }
      ],
      "stateMutability": "view",
      "type": "function"
    },
    {
      "inputs": [
        {
          "internalType": "bool",
          "name": "_state",
          "type": "bool"
        }
      ],
      "name": "pause",
      "outputs": [],
      "stateMutability": "nonpayable",
      "type": "function"
    },
    {
      "inputs": [],
      "name": "paused",
      "outputs": [
        {
          "internalType": "bool",
          "name": "",
          "type": "bool"
        }
      ],
      "stateMutability": "view",
      "type": "function"
    },
    {
      "inputs": [],
      "name": "renounceOwnership",
      "outputs": [],
      "stateMutability": "nonpayable",
      "type": "function"
    },
    {
      "inputs": [
        {
          "internalType": "bool",
          "name": "_state",
          "type": "bool"
        }
      ],
      "name": "reveal",
      "outputs": [],
      "stateMutability": "nonpayable",
      "type": "function"
    },
    {
      "inputs": [],
      "name": "revealed",
      "outputs": [
        {
          "internalType": "bool",
          "name": "",
          "type": "bool"
        }
      ],
      "stateMutability": "view",
      "type": "function"
    },
    {
      "inputs": [
        {
          "internalType": "address",
          "name": "from",
          "type": "address"
        },
        {
          "internalType": "address",
          "name": "to",
          "type": "address"
        },
        {
          "internalType": "uint256",
          "name": "tokenId",
          "type": "uint256"
        }
      ],
      "name": "safeTransferFrom",
      "outputs": [],
      "stateMutability": "payable",
      "type": "function"
    },
    {
      "inputs": [
        {
          "internalType": "address",
          "name": "from",
          "type": "address"
        },
        {
          "internalType": "address",
          "name": "to",
          "type": "address"
        },
        {
          "internalType": "uint256",
          "name": "tokenId",
          "type": "uint256"
        },
        {
          "internalType": "bytes",
          "name": "data",
          "type": "bytes"
        }
      ],
      "name": "safeTransferFrom",
      "outputs": [],
      "stateMutability": "payable",
      "type": "function"
    },
    {
      "inputs": [
        {
          "internalType": "address",
          "name": "operator",
          "type": "address"
        },
        {
          "internalType": "bool",
          "name": "approved",
          "type": "bool"
        }
      ],
      "name": "setApprovalForAll",
      "outputs": [],
      "stateMutability": "nonpayable",
      "type": "function"
    },
    {
      "inputs": [
        {
          "internalType": "string",
          "name": "_newBaseExtension",
          "type": "string"
        }
      ],
      "name": "setBaseExtension",
      "outputs": [],
      "stateMutability": "nonpayable",
      "type": "function"
    },
    {
      "inputs": [
        {
          "internalType": "string",
          "name": "_newBaseURI",
          "type": "string"
        }
      ],
      "name": "setBaseURI",
      "outputs": [],
      "stateMutability": "nonpayable",
      "type": "function"
    },
    {
      "inputs": [
        {
          "internalType": "uint256",
          "name": "_limit",
          "type": "uint256"
        }
      ],
      "name": "setMaxperWallet_PublicMint",
      "outputs": [],
      "stateMutability": "nonpayable",
      "type": "function"
    },
    {
      "inputs": [
        {
          "internalType": "uint256",
          "name": "_newsupply",
          "type": "uint256"
        }
      ],
      "name": "setMaxsupply",
      "outputs": [],
      "stateMutability": "nonpayable",
      "type": "function"
    },
    {
      "inputs": [
        {
          "internalType": "string",
          "name": "_notRevealedURI",
          "type": "string"
        }
      ],
      "name": "setNotRevealedURI",
      "outputs": [],
      "stateMutability": "nonpayable",
      "type": "function"
    },
    {
      "inputs": [
        {
          "internalType": "uint256",
          "name": "_newCost",
          "type": "uint256"
        }
      ],
      "name": "setPublicMintCost",
      "outputs": [],
      "stateMutability": "nonpayable",
      "type": "function"
    },
    {
      "inputs": [
        {
          "internalType": "bytes4",
          "name": "interfaceId",
          "type": "bytes4"
        }
      ],
      "name": "supportsInterface",
      "outputs": [
        {
          "internalType": "bool",
          "name": "",
          "type": "bool"
        }
      ],
      "stateMutability": "view",
      "type": "function"
    },
    {
      "inputs": [],
      "name": "symbol",
      "outputs": [
        {
          "internalType": "string",
          "name": "",
          "type": "string"
        }
      ],
      "stateMutability": "view",
      "type": "function"
    },
    {
      "inputs": [
        {
          "internalType": "bool",
          "name": "_state",
          "type": "bool"
        }
      ],
      "name": "toggle_PublicMint_Live",
      "outputs": [],
      "stateMutability": "nonpayable",
      "type": "function"
    },
    {
      "inputs": [
        {
          "internalType": "uint256",
          "name": "tokenId",
          "type": "uint256"
        }
      ],
      "name": "tokenURI",
      "outputs": [
        {
          "internalType": "string",
          "name": "",
          "type": "string"
        }
      ],
      "stateMutability": "view",
      "type": "function"
    },
    {
      "inputs": [],
      "name": "totalSupply",
      "outputs": [
        {
          "internalType": "uint256",
          "name": "",
          "type": "uint256"
        }
      ],
      "stateMutability": "view",
      "type": "function"
    },
    {
      "inputs": [
        {
          "internalType": "address",
          "name": "from",
          "type": "address"
        },
        {
          "internalType": "address",
          "name": "to",
          "type": "address"
        },
        {
          "internalType": "uint256",
          "name": "tokenId",
          "type": "uint256"
        }
      ],
      "name": "transferFrom",
      "outputs": [],
      "stateMutability": "payable",
      "type": "function"
    },
    {
      "inputs": [
        {
          "internalType": "address",
          "name": "newOwner",
          "type": "address"
        }
      ],
      "name": "transferOwnership",
      "outputs": [],
      "stateMutability": "nonpayable",
      "type": "function"
    },
    {
      "inputs": [],
      "name": "withdraw",
      "outputs": [],
      "stateMutability": "payable",
      "type": "function"
    }
  ],
  "bytecode": "0x60c06040526005608090815264173539b7b760d91b60a052600b9062000026908262000420565b5060408051808201909152601781527f697066733a2f2f6e6f7472657665616c65647572692f200000000000000000006020820152600c906200006a908262000420565b5066f5232269808000600d55611b39600e556005600f556010805462ffffff191660011790553480156200009d57600080fd5b50604051620025bc380380620025bc833981016040819052620000c091620004ec565b733cc6cdda760b79bafa08df41ecfa224f810dceb6600160405180604001604052806009815260200168151d5c989bdd1bd85960ba1b815250604051806040016040528060098152602001681d1d5c989bdd1bd85960ba1b81525081600290816200012c919062000420565b5060036200013b828262000420565b505060008055506200014d33620002ac565b60016009556daaeb6d7670e522a718067333cd4e3b1562000297578015620001e557604051633e9f1edf60e11b81523060048201526001600160a01b03831660248201526daaeb6d7670e522a718067333cd4e90637d3e3dbe906044015b600060405180830381600087803b158015620001c657600080fd5b505af1158015620001db573d6000803e3d6000fd5b5050505062000297565b6001600160a01b03821615620002365760405163a0af290360e01b81523060048201526001600160a01b03831660248201526daaeb6d7670e522a718067333cd4e9063a0af290390604401620001ab565b604051632210724360e11b81523060048201526daaeb6d7670e522a718067333cd4e90634420e48690602401600060405180830381600087803b1580156200027d57600080fd5b505af115801562000292573d6000803e3d6000fd5b505050505b50620002a5905081620002fe565b50620005c1565b600880546001600160a01b038381166001600160a01b0319831681179093556040519116919082907f8be0079c531659141344cd1fd0a4f28419497f9722a3daafe3b4186f6b6457e090600090a35050565b620003086200031a565b600a62000316828262000420565b5050565b6008546001600160a01b03163314620003795760405162461bcd60e51b815260206004820181905260248201527f4f776e61626c653a2063616c6c6572206973206e6f7420746865206f776e6572604482015260640160405180910390fd5b565b634e487b7160e01b600052604160045260246000fd5b600181811c90821680620003a657607f821691505b602082108103620003c757634e487b7160e01b600052602260045260246000fd5b50919050565b601f8211156200041b57600081815260208120601f850160051c81016020861015620003f65750805b601f850160051c820191505b81811015620004175782815560010162000402565b5050505b505050565b81516001600160401b038111156200043c576200043c6200037b565b62000454816200044d845462000391565b84620003cd565b602080601f8311600181146200048c5760008415620004735750858301515b600019600386901b1c1916600185901b17855562000417565b600085815260208120601f198616915b82811015620004bd578886015182559484019460019091019084016200049c565b5085821015620004dc5787850151600019600388901b60f8161c191681555b5050505050600190811b01905550565b600060208083850312156200050057600080fd5b82516001600160401b03808211156200051857600080fd5b818501915085601f8301126200052d57600080fd5b8151818111156200054257620005426200037b565b604051601f8201601f19908116603f011681019083821181831017156200056d576200056d6200037b565b8160405282815288868487010111156200058657600080fd5b600093505b82841015620005aa57848401860151818501870152928501926200058b565b600086848301015280965050505050505092915050565b611feb80620005d16000396000f3fe60806040526004361061023b5760003560e01c80636c8b88651161012e578063b88d4fde116100ab578063da3ef23f1161006f578063da3ef23f1461061f578063dc33e6811461063f578063e985e9c51461065f578063f2c4ce1e1461067f578063f2fde38b1461069f57600080fd5b8063b88d4fde146105a1578063c6682862146105b4578063c87b56dd146105c9578063d0c62272146105e9578063d5abeb011461060957600080fd5b80638da5cb5b116100f25780638da5cb5b1461051b578063940cd05b1461053957806395d89b41146105595780639fb17e341461056e578063a22cb4651461058157600080fd5b80636c8b88651461048657806370a08231146104a6578063715018a6146104c657806380eae578146104db57806383a076be146104fb57600080fd5b80633ccfd60b116101bc57806355f804b31161018057806355f804b3146104015780635c975abb14610421578063613cb4691461043b5780636352211e146104515780636c0360eb1461047157600080fd5b80633ccfd60b1461038f57806341f434341461039757806342842e0e146103b95780634ae6157d146103cc57806351830227146103e257600080fd5b8063095ea7b311610203578063095ea7b314610306578063149835a01461031957806318160ddd146103395780631dc233f41461035c57806323b872dd1461037c57600080fd5b806301ffc9a71461024057806302329a291461027557806306fdde0314610297578063081812fc146102b9578063081c8c44146102f1575b600080fd5b34801561024c57600080fd5b5061026061025b3660046119df565b6106bf565b60405190151581526020015b60405180910390f35b34801561028157600080fd5b50610295610290366004611a0a565b610711565b005b3480156102a357600080fd5b506102ac61072c565b60405161026c9190611a77565b3480156102c557600080fd5b506102d96102d4366004611a8a565b6107be565b6040516001600160a01b03909116815260200161026c565b3480156102fd57600080fd5b506102ac610802565b610295610314366004611abf565b610890565b34801561032557600080fd5b50610295610334366004611a8a565b6108a9565b34801561034557600080fd5b50600154600054035b60405190815260200161026c565b34801561036857600080fd5b506010546102609062010000900460ff1681565b61029561038a366004611ae9565b6108b6565b6102956108e1565b3480156103a357600080fd5b506102d96daaeb6d7670e522a718067333cd4e81565b6102956103c7366004611ae9565b610953565b3480156103d857600080fd5b5061034e600f5481565b3480156103ee57600080fd5b5060105461026090610100900460ff1681565b34801561040d57600080fd5b5061029561041c366004611bb1565b610978565b34801561042d57600080fd5b506010546102609060ff1681565b34801561044757600080fd5b5061034e600d5481565b34801561045d57600080fd5b506102d961046c366004611a8a565b610990565b34801561047d57600080fd5b506102ac61099b565b34801561049257600080fd5b506102956104a1366004611a0a565b6109a8565b3480156104b257600080fd5b5061034e6104c1366004611bfa565b6109cc565b3480156104d257600080fd5b50610295610a1b565b3480156104e757600080fd5b506102956104f6366004611a8a565b610a2d565b34801561050757600080fd5b50610295610516366004611c15565b610a3a565b34801561052757600080fd5b506008546001600160a01b03166102d9565b34801561054557600080fd5b50610295610554366004611a0a565b610b0b565b34801561056557600080fd5b506102ac610b2d565b61029561057c366004611a8a565b610b3c565b34801561058d57600080fd5b5061029561059c366004611c41565b610dce565b6102956105af366004611c78565b610de2565b3480156105c057600080fd5b506102ac610e0f565b3480156105d557600080fd5b506102ac6105e4366004611a8a565b610e1c565b3480156105f557600080fd5b50610295610604366004611a8a565b610f91565b34801561061557600080fd5b5061034e600e5481565b34801561062b57600080fd5b5061029561063a366004611bb1565b610f9e565b34801561064b57600080fd5b5061034e61065a366004611bfa565b610fb2565b34801561066b57600080fd5b5061026061067a366004611cf4565b610fdd565b34801561068b57600080fd5b5061029561069a366004611bb1565b61100b565b3480156106ab57600080fd5b506102956106ba366004611bfa565b61101f565b60006301ffc9a760e01b6001600160e01b0319831614806106f057506380ac58cd60e01b6001600160e01b03198316145b8061070b5750635b5e139f60e01b6001600160e01b03198316145b92915050565b610719611095565b6010805460ff1916911515919091179055565b60606002805461073b90611d1e565b80601f016020809104026020016040519081016040528092919081815260200182805461076790611d1e565b80156107b45780601f10610789576101008083540402835291602001916107b4565b820191906000526020600020905b81548152906001019060200180831161079757829003601f168201915b5050505050905090565b60006107c9826110ef565b6107e6576040516333d1c03960e21b815260040160405180910390fd5b506000908152600660205260409020546001600160a01b031690565b600c805461080f90611d1e565b80601f016020809104026020016040519081016040528092919081815260200182805461083b90611d1e565b80156108885780601f1061085d57610100808354040283529160200191610888565b820191906000526020600020905b81548152906001019060200180831161086b57829003601f168201915b505050505081565b8161089a81611116565b6108a483836111cf565b505050565b6108b1611095565b600e55565b826001600160a01b03811633146108d0576108d033611116565b6108db84848461126f565b50505050565b6108e9611095565b6108f1611408565b604051600090339047908381818185875af1925050503d8060008114610933576040519150601f19603f3d011682016040523d82523d6000602084013e610938565b606091505b505090508061094657600080fd5b506109516001600955565b565b826001600160a01b038116331461096d5761096d33611116565b6108db848484611461565b610980611095565b600a61098c8282611d9e565b5050565b600061070b8261147c565b600a805461080f90611d1e565b6109b0611095565b60108054911515620100000262ff000019909216919091179055565b60006001600160a01b0382166109f5576040516323d3ad8160e21b815260040160405180910390fd5b506001600160a01b031660009081526005602052604090205467ffffffffffffffff1690565b610a23611095565b61095160006114e3565b610a35611095565b600d55565b610a42611095565b610a4a611408565b60008211610a9f5760405162461bcd60e51b815260206004820152601b60248201527f6e65656420746f206d696e74206174206c656173742031204e4654000000000060448201526064015b60405180910390fd5b6000610aae6001546000540390565b600e54909150610abe8483611e74565b1115610af65760405162461bcd60e51b815260206004820152600760248201526614dbdb191bdd5d60ca1b6044820152606401610a96565b610b008284611535565b5061098c6001600955565b610b13611095565b601080549115156101000261ff0019909216919091179055565b60606003805461073b90611d1e565b610b44611408565b60105460ff1615610b975760405162461bcd60e51b815260206004820152601760248201527f6f6f707320636f6e7472616374206973207061757365640000000000000000006044820152606401610a96565b60105462010000900460ff16610bef5760405162461bcd60e51b815260206004820152601760248201527f53616c65204861736e27742073746172746564207965740000000000000000006044820152606401610a96565b6000610bfe6001546000540390565b905060008211610c505760405162461bcd60e51b815260206004820152601b60248201527f6e65656420746f206d696e74206174206c656173742031204e465400000000006044820152606401610a96565b600f54821115610ca25760405162461bcd60e51b815260206004820152601f60248201527f6d6178206d696e7420616d6f756e7420706572207478206578636565646564006044820152606401610a96565b600e54610caf8383611e74565b1115610cea5760405162461bcd60e51b815260206004820152600a60248201526915d94814dbdb191bdd5d60b21b6044820152606401610a96565b600f5433600090815260056020526040908190205484911c67ffffffffffffffff16610d169190611e74565b1115610d645760405162461bcd60e51b815260206004820152601d60248201527f204d6178204e465473205065722057616c6c65742065786365656465640000006044820152606401610a96565b81600d54610d729190611e87565b341015610db65760405162461bcd60e51b8152602060048201526012602482015271696e73756666696369656e742066756e647360701b6044820152606401610a96565b610dc03383611535565b50610dcb6001600955565b50565b81610dd881611116565b6108a4838361154f565b836001600160a01b0381163314610dfc57610dfc33611116565b610e08858585856115bb565b5050505050565b600b805461080f90611d1e565b6060610e27826110ef565b610e8c5760405162461bcd60e51b815260206004820152603060248201527f455243373231414d657461646174613a2055524920717565727920666f72206e60448201526f37b732bc34b9ba32b73a103a37b5b2b760811b6064820152608401610a96565b601054610100900460ff161515600003610f3257600c8054610ead90611d1e565b80601f0160208091040260200160405190810160405280929190818152602001828054610ed990611d1e565b8015610f265780601f10610efb57610100808354040283529160200191610f26565b820191906000526020600020905b815481529060010190602001808311610f0957829003601f168201915b50505050509050919050565b6000610f3c6115ff565b90506000815111610f5c5760405180602001604052806000815250610f8a565b80610f668461160e565b600b604051602001610f7a93929190611e9e565b6040516020818303038152906040525b9392505050565b610f99611095565b600f55565b610fa6611095565b600b61098c8282611d9e565b6001600160a01b0381166000908152600560205260408082205467ffffffffffffffff911c1661070b565b6001600160a01b03918216600090815260076020908152604080832093909416825291909152205460ff1690565b611013611095565b600c61098c8282611d9e565b611027611095565b6001600160a01b03811661108c5760405162461bcd60e51b815260206004820152602660248201527f4f776e61626c653a206e6577206f776e657220697320746865207a65726f206160448201526564647265737360d01b6064820152608401610a96565b610dcb816114e3565b6008546001600160a01b031633146109515760405162461bcd60e51b815260206004820181905260248201527f4f776e61626c653a2063616c6c6572206973206e6f7420746865206f776e65726044820152606401610a96565b600080548210801561070b575050600090815260046020526040902054600160e01b161590565b6daaeb6d7670e522a718067333cd4e3b15610dcb57604051633185c44d60e21b81523060048201526001600160a01b03821660248201526daaeb6d7670e522a718067333cd4e9063c617113490604401602060405180830381865afa158015611183573d6000803e3d6000fd5b505050506040513d601f19601f820116820180604052508101906111a79190611f3e565b610dcb57604051633b79c77360e21b81526001600160a01b0382166004820152602401610a96565b60006111da82610990565b9050336001600160a01b03821614611213576111f68133610fdd565b611213576040516367d9dca160e11b815260040160405180910390fd5b60008281526006602052604080822080546001600160a01b0319166001600160a01b0387811691821790925591518593918516917f8c5be1e5ebec7d5bd14f71427d1e84f3dd0314c0f7b2291e5b200ac8c7c3b92591a4505050565b600061127a8261147c565b9050836001600160a01b0316816001600160a01b0316146112ad5760405162a1148160e81b815260040160405180910390fd5b60008281526006602052604090208054338082146001600160a01b038816909114176112fa576112dd8633610fdd565b6112fa57604051632ce44b5f60e11b815260040160405180910390fd5b6001600160a01b03851661132157604051633a954ecd60e21b815260040160405180910390fd5b801561132c57600082555b6001600160a01b038681166000908152600560205260408082208054600019019055918716808252919020805460010190554260a01b17600160e11b17600085815260046020526040812091909155600160e11b841690036113be576001840160008181526004602052604081205490036113bc5760005481146113bc5760008181526004602052604090208490555b505b83856001600160a01b0316876001600160a01b03167fddf252ad1be2c89b69c2b068fc378daa952ba7f163c4a11628f55a4df523b3ef60405160405180910390a45b505050505050565b60026009540361145a5760405162461bcd60e51b815260206004820152601f60248201527f5265656e7472616e637947756172643a207265656e7472616e742063616c6c006044820152606401610a96565b6002600955565b6108a483838360405180602001604052806000815250610de2565b6000816000548110156114ca5760008181526004602052604081205490600160e01b821690036114c8575b80600003610f8a5750600019016000818152600460205260409020546114a7565b505b604051636f96cda160e11b815260040160405180910390fd5b600880546001600160a01b038381166001600160a01b0319831681179093556040519116919082907f8be0079c531659141344cd1fd0a4f28419497f9722a3daafe3b4186f6b6457e090600090a35050565b61098c8282604051806020016040528060008152506116a1565b3360008181526007602090815260408083206001600160a01b03871680855290835292819020805460ff191686151590811790915590519081529192917f17307eab39ab6107e8899845ad3d59bd9653f200f220920489ca2b5937696c31910160405180910390a35050565b6115c68484846108b6565b6001600160a01b0383163b156108db576115e284848484611707565b6108db576040516368d2bf6b60e11b815260040160405180910390fd5b6060600a805461073b90611d1e565b6060600061161b836117f3565b600101905060008167ffffffffffffffff81111561163b5761163b611b25565b6040519080825280601f01601f191660200182016040528015611665576020820181803683370190505b5090508181016020015b600019016f181899199a1a9b1b9c1cb0b131b232b360811b600a86061a8153600a850494508461166f57509392505050565b6116ab83836118cb565b6001600160a01b0383163b156108a4576000548281035b6116d56000868380600101945086611707565b6116f2576040516368d2bf6b60e11b815260040160405180910390fd5b8181106116c2578160005414610e0857600080fd5b604051630a85bd0160e11b81526000906001600160a01b0385169063150b7a029061173c903390899088908890600401611f5b565b6020604051808303816000875af1925050508015611777575060408051601f3d908101601f1916820190925261177491810190611f98565b60015b6117d5573d8080156117a5576040519150601f19603f3d011682016040523d82523d6000602084013e6117aa565b606091505b5080516000036117cd576040516368d2bf6b60e11b815260040160405180910390fd5b805181602001fd5b6001600160e01b031916630a85bd0160e11b1490505b949350505050565b60008072184f03e93ff9f4daa797ed6e38ed64bf6a1f0160401b83106118325772184f03e93ff9f4daa797ed6e38ed64bf6a1f0160401b830492506040015b6d04ee2d6d415b85acef8100000000831061185e576d04ee2d6d415b85acef8100000000830492506020015b662386f26fc10000831061187c57662386f26fc10000830492506010015b6305f5e1008310611894576305f5e100830492506008015b61271083106118a857612710830492506004015b606483106118ba576064830492506002015b600a831061070b5760010192915050565b60008054908290036118f05760405163b562e8dd60e01b815260040160405180910390fd5b6001600160a01b03831660008181526005602090815260408083208054680100000000000000018802019055848352600490915281206001851460e11b4260a01b178317905582840190839083907fddf252ad1be2c89b69c2b068fc378daa952ba7f163c4a11628f55a4df523b3ef8180a4600183015b81811461199f57808360007fddf252ad1be2c89b69c2b068fc378daa952ba7f163c4a11628f55a4df523b3ef600080a4600101611967565b50816000036119c057604051622e076360e81b815260040160405180910390fd5b60005550505050565b6001600160e01b031981168114610dcb57600080fd5b6000602082840312156119f157600080fd5b8135610f8a816119c9565b8015158114610dcb57600080fd5b600060208284031215611a1c57600080fd5b8135610f8a816119fc565b60005b83811015611a42578181015183820152602001611a2a565b50506000910152565b60008151808452611a63816020860160208601611a27565b601f01601f19169290920160200192915050565b602081526000610f8a6020830184611a4b565b600060208284031215611a9c57600080fd5b5035919050565b80356001600160a01b0381168114611aba57600080fd5b919050565b60008060408385031215611ad257600080fd5b611adb83611aa3565b946020939093013593505050565b600080600060608486031215611afe57600080fd5b611b0784611aa3565b9250611b1560208501611aa3565b9150604084013590509250925092565b634e487b7160e01b600052604160045260246000fd5b600067ffffffffffffffff80841115611b5657611b56611b25565b604051601f8501601f19908116603f01168101908282118183101715611b7e57611b7e611b25565b81604052809350858152868686011115611b9757600080fd5b858560208301376000602087830101525050509392505050565b600060208284031215611bc357600080fd5b813567ffffffffffffffff811115611bda57600080fd5b8201601f81018413611beb57600080fd5b6117eb84823560208401611b3b565b600060208284031215611c0c57600080fd5b610f8a82611aa3565b60008060408385031215611c2857600080fd5b82359150611c3860208401611aa3565b90509250929050565b60008060408385031215611c5457600080fd5b611c5d83611aa3565b91506020830135611c6d816119fc565b809150509250929050565b60008060008060808587031215611c8e57600080fd5b611c9785611aa3565b9350611ca560208601611aa3565b925060408501359150606085013567ffffffffffffffff811115611cc857600080fd5b8501601f81018713611cd957600080fd5b611ce887823560208401611b3b565b91505092959194509250565b60008060408385031215611d0757600080fd5b611d1083611aa3565b9150611c3860208401611aa3565b600181811c90821680611d3257607f821691505b602082108103611d5257634e487b7160e01b600052602260045260246000fd5b50919050565b601f8211156108a457600081815260208120601f850160051c81016020861015611d7f5750805b601f850160051c820191505b8181101561140057828155600101611d8b565b815167ffffffffffffffff811115611db857611db8611b25565b611dcc81611dc68454611d1e565b84611d58565b602080601f831160018114611e015760008415611de95750858301515b600019600386901b1c1916600185901b178555611400565b600085815260208120601f198616915b82811015611e3057888601518255948401946001909101908401611e11565b5085821015611e4e5787850151600019600388901b60f8161c191681555b5050505050600190811b01905550565b634e487b7160e01b600052601160045260246000fd5b8082018082111561070b5761070b611e5e565b808202811582820484141761070b5761070b611e5e565b600084516020611eb18285838a01611a27565b855191840191611ec48184848a01611a27565b8554920191600090611ed581611d1e565b60018281168015611eed5760018114611f0257611f2e565b60ff1984168752821515830287019450611f2e565b896000528560002060005b84811015611f2657815489820152908301908701611f0d565b505082870194505b50929a9950505050505050505050565b600060208284031215611f5057600080fd5b8151610f8a816119fc565b6001600160a01b0385811682528416602082015260408101839052608060608201819052600090611f8e90830184611a4b565b9695505050505050565b600060208284031215611faa57600080fd5b8151610f8a816119c956fea264697066735822122061476290d581b2dd78c699ac027da3d7960b480720350609ec902c361c15154064736f6c63430008110033",
  "linkReferences": {},
  "deployedLinkReferences": {}
}